{"abi":[{"type":"constructor","inputs":[{"name":"creator_","type":"address","internalType":"address"},{"name":"treasury_","type":"address","internalType":"address"}],"stateMutability":"nonpayable"},{"type":"function","name":"accountedContractBalance","inputs":[],"outputs":[{"name":"","type":"uint256","internalType":"uint256"}],"stateMutability":"view"},{"type":"function","name":"accountedExecutedBase","inputs":[],"outputs":[{"name":"","type":"uint256","internalType":"uint256"}],"stateMutability":"view"},{"type":"function","name":"accountedTokenSupply","inputs":[],"outputs":[{"name":"","type":"uint256","internalType":"uint256"}],"stateMutability":"view"},{"type":"function","name":"burnedTokens","inputs":[],"outputs":[{"name":"","type":"uint256","internalType":"uint256"}],"stateMutability":"view"},{"type":"function","name":"buy","inputs":[{"name":"minimumTokensOut","type":"uint256","internalType":"uint256"}],"outputs":[{"name":"tokensOut","type":"uint256","internalType":"uint256"}],"stateMutability":"payable"},{"type":"function","name":"claimBaseCredit","inputs":[],"outputs":[{"name":"amount","type":"uint256","internalType":"uint256"}],"stateMutability":"nonpayable"},{"type":"function","name":"claimCreatorFees","inputs":[],"outputs":[{"name":"amount","type":"uint256","internalType":"uint256"}],"stateMutability":"nonpayable"},{"type":"function","name":"claimRefund","inputs":[],"outputs":[{"name":"amount","type":"uint256","internalType":"uint256"}],"stateMutability":"nonpayable"},{"type":"function","name":"claimTreasuryFees","inputs":[],"outputs":[{"name":"amount","type":"uint256","internalType":"uint256"}],"stateMutability":"nonpayable"},{"type":"function","name":"claimableBaseOf","inputs":[{"name":"user","type":"address","internalType":"address"}],"outputs":[{"name":"credit","type":"uint256","internalType":"uint256"}],"stateMutability":"view"},{"type":"function","name":"claimableRefundOf","inputs":[{"name":"user","type":"address","internalType":"address"}],"outputs":[{"name":"refund","type":"uint256","internalType":"uint256"}],"stateMutability":"view"},{"type":"function","name":"creator","inputs":[],"outputs":[{"name":"","type":"address","internalType":"address"}],"stateMutability":"view"},{"type":"function","name":"creatorInitialBuy","inputs":[{"name":"minimumTokensOut","type":"uint256","internalType":"uint256"}],"outputs":[{"name":"tokensOut","type":"uint256","internalType":"uint256"}],"stateMutability":"payable"},{"type":"function","name":"creatorInitialBuyExecuted","inputs":[],"outputs":[{"name":"","type":"bool","internalType":"bool"}],"stateMutability":"view"},{"type":"function","name":"creatorTradingFees","inputs":[],"outputs":[{"name":"","type":"uint256","internalType":"uint256"}],"stateMutability":"view"},{"type":"function","name":"curveTokenInventory","inputs":[],"outputs":[{"name":"","type":"uint256","internalType":"uint256"}],"stateMutability":"view"},{"type":"function","name":"graduationTokenReserve","inputs":[],"outputs":[{"name":"","type":"uint256","internalType":"uint256"}],"stateMutability":"view"},{"type":"function","name":"graduationTreasuryAllocation","inputs":[],"outputs":[{"name":"","type":"uint256","internalType":"uint256"}],"stateMutability":"view"},{"type":"function","name":"liquidityBase","inputs":[],"outputs":[{"name":"","type":"uint256","internalType":"uint256"}],"stateMutability":"view"},{"type":"function","name":"liquidityTokens","inputs":[],"outputs":[{"name":"","type":"uint256","internalType":"uint256"}],"stateMutability":"view"},{"type":"function","name":"mockBurnedLp","inputs":[],"outputs":[{"name":"","type":"uint256","internalType":"uint256"}],"stateMutability":"view"},{"type":"function","name":"mockTotalLp","inputs":[],"outputs":[{"name":"","type":"uint256","internalType":"uint256"}],"stateMutability":"view"},{"type":"function","name":"mockTreasuryLp","inputs":[],"outputs":[{"name":"","type":"uint256","internalType":"uint256"}],"stateMutability":"view"},{"type":"function","name":"realBaseReserve","inputs":[],"outputs":[{"name":"","type":"uint256","internalType":"uint256"}],"stateMutability":"view"},{"type":"function","name":"sell","inputs":[{"name":"tokenAmount","type":"uint256","internalType":"uint256"},{"name":"minimumBaseOut","type":"uint256","internalType":"uint256"}],"outputs":[{"name":"netBaseCredit","type":"uint256","internalType":"uint256"}],"stateMutability":"nonpayable"},{"type":"function","name":"state","inputs":[],"outputs":[{"name":"","type":"uint8","internalType":"enum LaunchState"}],"stateMutability":"view"},{"type":"function","name":"tokenBalanceOf","inputs":[{"name":"user","type":"address","internalType":"address"}],"outputs":[{"name":"balance","type":"uint256","internalType":"uint256"}],"stateMutability":"view"},{"type":"function","name":"totalClaimableBase","inputs":[],"outputs":[{"name":"","type":"uint256","internalType":"uint256"}],"stateMutability":"view"},{"type":"function","name":"totalGrossBaseExecuted","inputs":[],"outputs":[{"name":"","type":"uint256","internalType":"uint256"}],"stateMutability":"view"},{"type":"function","name":"totalGrossBaseRefunded","inputs":[],"outputs":[{"name":"","type":"uint256","internalType":"uint256"}],"stateMutability":"view"},{"type":"function","name":"totalGrossBaseSubmitted","inputs":[],"outputs":[{"name":"","type":"uint256","internalType":"uint256"}],"stateMutability":"view"},{"type":"function","name":"totalOutstandingRefunds","inputs":[],"outputs":[{"name":"","type":"uint256","internalType":"uint256"}],"stateMutability":"view"},{"type":"function","name":"totalUserTokenBalances","inputs":[],"outputs":[{"name":"","type":"uint256","internalType":"uint256"}],"stateMutability":"view"},{"type":"function","name":"tradingStarted","inputs":[],"outputs":[{"name":"","type":"bool","internalType":"bool"}],"stateMutability":"view"},{"type":"function","name":"treasury","inputs":[],"outputs":[{"name":"","type":"address","internalType":"address"}],"stateMutability":"view"},{"type":"function","name":"treasuryTradingFees","inputs":[],"outputs":[{"name":"","type":"uint256","internalType":"uint256"}],"stateMutability":"view"},{"type":"function","name":"virtualBaseReserve","inputs":[],"outputs":[{"name":"","type":"uint256","internalType":"uint256"}],"stateMutability":"view"},{"type":"function","name":"virtualTokenReserve","inputs":[],"outputs":[{"name":"","type":"uint256","internalType":"uint256"}],"stateMutability":"view"},{"type":"event","name":"EtherClaimed","inputs":[{"name":"account","type":"address","indexed":true,"internalType":"address"},{"name":"amount","type":"uint256","indexed":false,"internalType":"uint256"},{"name":"claimType","type":"bytes32","indexed":true,"internalType":"bytes32"}],"anonymous":false},{"type":"event","name":"GraduationExecuted","inputs":[{"name":"treasuryAllocation","type":"uint256","indexed":false,"internalType":"uint256"},{"name":"liquidityBase","type":"uint256","indexed":false,"internalType":"uint256"},{"name":"liquidityTokens","type":"uint256","indexed":false,"internalType":"uint256"},{"name":"burnedTokens","type":"uint256","indexed":false,"internalType":"uint256"},{"name":"burnedLp","type":"uint256","indexed":false,"internalType":"uint256"}],"anonymous":false},{"type":"event","name":"RefundRecorded","inputs":[{"name":"buyer","type":"address","indexed":true,"internalType":"address"},{"name":"grossBaseRefund","type":"uint256","indexed":false,"internalType":"uint256"}],"anonymous":false},{"type":"event","name":"TokensPurchased","inputs":[{"name":"buyer","type":"address","indexed":true,"internalType":"address"},{"name":"grossBaseUsed","type":"uint256","indexed":false,"internalType":"uint256"},{"name":"netBaseToCurve","type":"uint256","indexed":false,"internalType":"uint256"},{"name":"tokensOut","type":"uint256","indexed":false,"internalType":"uint256"},{"name":"creatorFee","type":"uint256","indexed":false,"internalType":"uint256"},{"name":"treasuryFee","type":"uint256","indexed":false,"internalType":"uint256"}],"anonymous":false},{"type":"event","name":"TokensSold","inputs":[{"name":"seller","type":"address","indexed":true,"internalType":"address"},{"name":"tokensIn","type":"uint256","indexed":false,"internalType":"uint256"},{"name":"grossBaseOut","type":"uint256","indexed":false,"internalType":"uint256"},{"name":"netBaseCredit","type":"uint256","indexed":false,"internalType":"uint256"},{"name":"creatorFee","type":"uint256","indexed":false,"internalType":"uint256"},{"name":"treasuryFee","type":"uint256","indexed":false,"internalType":"uint256"}],"anonymous":false},{"type":"error","name":"AccountingInvariantFailed","inputs":[]},{"type":"error","name":"BaseSlippageExceeded","inputs":[{"name":"minimum","type":"uint256","internalType":"uint256"},{"name":"actual","type":"uint256","internalType":"uint256"}]},{"type":"error","name":"CreatorInitialBuyCapExceeded","inputs":[{"name":"tokensOut","type":"uint256","internalType":"uint256"},{"name":"cap","type":"uint256","internalType":"uint256"}]},{"type":"error","name":"CreatorOnly","inputs":[{"name":"caller","type":"address","internalType":"address"}]},{"type":"error","name":"EtherTransferFailed","inputs":[{"name":"recipient","type":"address","internalType":"address"},{"name":"amount","type":"uint256","internalType":"uint256"}]},{"type":"error","name":"GraduationTokenReserveExceeded","inputs":[{"name":"available","type":"uint256","internalType":"uint256"},{"name":"required","type":"uint256","internalType":"uint256"}]},{"type":"error","name":"GrossUpInvariantFailed","inputs":[{"name":"requiredNet","type":"uint256","internalType":"uint256"},{"name":"actualNet","type":"uint256","internalType":"uint256"}]},{"type":"error","name":"InitialBuyClosed","inputs":[]},{"type":"error","name":"InsufficientGrossAmount","inputs":[{"name":"available","type":"uint256","internalType":"uint256"},{"name":"required","type":"uint256","internalType":"uint256"}]},{"type":"error","name":"InsufficientRealReserve","inputs":[{"name":"available","type":"uint256","internalType":"uint256"},{"name":"required","type":"uint256","internalType":"uint256"}]},{"type":"error","name":"InsufficientTokenBalance","inputs":[{"name":"available","type":"uint256","internalType":"uint256"},{"name":"required","type":"uint256","internalType":"uint256"}]},{"type":"error","name":"InvalidInventory","inputs":[{"name":"inventory","type":"uint256","internalType":"uint256"},{"name":"virtualTokenReserve","type":"uint256","internalType":"uint256"}]},{"type":"error","name":"InvalidState","inputs":[{"name":"current","type":"uint8","internalType":"enum LaunchState"},{"name":"required","type":"uint8","internalType":"enum LaunchState"}]},{"type":"error","name":"InvalidTokenOutput","inputs":[{"name":"tokensOut","type":"uint256","internalType":"uint256"},{"name":"virtualTokenReserve","type":"uint256","internalType":"uint256"}]},{"type":"error","name":"NoClaimableAmount","inputs":[{"name":"account","type":"address","internalType":"address"}]},{"type":"error","name":"ReentrancyGuardReentrantCall","inputs":[]},{"type":"error","name":"TokenSlippageExceeded","inputs":[{"name":"minimum","type":"uint256","internalType":"uint256"},{"name":"actual","type":"uint256","internalType":"uint256"}]},{"type":"error","name":"TreasuryOnly","inputs":[{"name":"caller","type":"address","internalType":"address"}]},{"type":"error","name":"ZeroAddress","inputs":[]},{"type":"error","name":"ZeroAmount","inputs":[]},{"type":"error","name":"ZeroAmount","inputs":[]},{"type":"error","name":"ZeroInventory","inputs":[]},{"type":"error","name":"ZeroOutput","inputs":[]},{"type":"error","name":"ZeroReserve","inputs":[]}],"bytecode":{"object":"0x60c060405234801561000f575f5ffd5b50604051612f6c380380612f6c83398181016040528101906100319190610211565b60015f819055505f73ffffffffffffffffffffffffffffffffffffffff168273ffffffffffffffffffffffffffffffffffffffff16148061009d57505f73ffffffffffffffffffffffffffffffffffffffff168173ffffffffffffffffffffffffffffffffffffffff16145b156100d4576040517fd92e233d00000000000000000000000000000000000000000000000000000000815260040160405180910390fd5b8173ffffffffffffffffffffffffffffffffffffffff1660808173ffffffffffffffffffffffffffffffffffffffff16815250508073ffffffffffffffffffffffffffffffffffffffff1660a08173ffffffffffffffffffffffffffffffffffffffff16815250506001805f6101000a81548160ff021916908360038111156101605761015f61024f565b5b02179055506713c69df334ee80006002819055506b03725373e24b705ab7cc00006003819055506b0295be96e6406697200000006005819055506aa56fa5b99019a5c8000000600681905550505061027c565b5f5ffd5b5f73ffffffffffffffffffffffffffffffffffffffff82169050919050565b5f6101e0826101b7565b9050919050565b6101f0816101d6565b81146101fa575f5ffd5b50565b5f8151905061020b816101e7565b92915050565b5f5f60408385031215610227576102266101b3565b5b5f610234858286016101fd565b9250506020610245858286016101fd565b9150509250929050565b7f4e487b71000000000000000000000000000000000000000000000000000000005f52602160045260245ffd5b60805160a051612cba6102b25f395f8181610a770152610ea301525f81816108ba015281816109180152610ac00152612cba5ff3fe608060405260043610610224575f3560e01c8063a885b6b511610122578063d1ba24e7116100aa578063e09d27a91161006e578063e09d27a9146107d4578063e42c08f2146107fe578063eeb87bcd1461083a578063f6d13af814610864578063f7c8c7b71461088e57610224565b8063d1ba24e7146106ea578063d55d35b914610714578063d79875eb1461073e578063d96a094a1461077a578063da3a2e54146107aa57610224565b8063b67961de116100f1578063b67961de14610606578063c19d93fb14610630578063c357c3fb1461065a578063c439f3d814610684578063c51f00f3146106ae57610224565b8063a885b6b514610558578063aacd9d2314610582578063ad08ef03146105b2578063b5545a3c146105dc57610224565b806347b5dd54116101b057806362d0c2681161017457806362d0c268146104865780636a4d8e8f146104b05780636c569f21146104da5780639068799c14610504578063a1e629ee1461052e57610224565b806347b5dd54146103b45780634b8ce602146103de5780635b4f472a146104085780635eb323c51461043257806361d027b31461045c57610224565b806316189de7116101f757806316189de7146102e2578063200d51bc1461030c5780632ebcf1b514610336578063343ee3b714610360578063351fee461461038a57610224565b806302d05d3f146102285780630b1bba241461025257806311bcc3ad1461027c57806312c34054146102b8575b5f5ffd5b348015610233575f5ffd5b5061023c6108b8565b604051610249919061281b565b60405180910390f35b34801561025d575f5ffd5b506102666108dc565b604051610273919061284c565b60405180910390f35b348015610287575f5ffd5b506102a2600480360381019061029d9190612893565b6108e2565b6040516102af919061284c565b60405180910390f35b3480156102c3575f5ffd5b506102cc6108f7565b6040516102d9919061284c565b60405180910390f35b3480156102ed575f5ffd5b506102f66108fd565b604051610303919061284c565b60405180910390f35b348015610317575f5ffd5b50610320610903565b60405161032d919061284c565b60405180910390f35b348015610341575f5ffd5b5061034a610909565b604051610357919061284c565b60405180910390f35b34801561036b575f5ffd5b5061037461090f565b604051610381919061284c565b60405180910390f35b348015610395575f5ffd5b5061039e610915565b6040516103ab919061284c565b60405180910390f35b3480156103bf575f5ffd5b506103c8610a3c565b6040516103d5919061284c565b60405180910390f35b3480156103e9575f5ffd5b506103f2610a42565b6040516103ff919061284c565b60405180910390f35b348015610413575f5ffd5b5061041c610a48565b60405161042991906128d8565b60405180910390f35b34801561043d575f5ffd5b50610446610a5a565b604051610453919061284c565b60405180910390f35b348015610467575f5ffd5b50610470610a75565b60405161047d919061281b565b60405180910390f35b348015610491575f5ffd5b5061049a610a99565b6040516104a7919061284c565b60405180910390f35b3480156104bb575f5ffd5b506104c4610a9f565b6040516104d1919061284c565b60405180910390f35b3480156104e5575f5ffd5b506104ee610aa5565b6040516104fb919061284c565b60405180910390f35b34801561050f575f5ffd5b50610518610aab565b604051610525919061284c565b60405180910390f35b348015610539575f5ffd5b50610542610ab1565b60405161054f919061284c565b60405180910390f35b348015610563575f5ffd5b5061056c610ab7565b604051610579919061284c565b60405180910390f35b61059c6004803603810190610597919061291b565b610abd565b6040516105a9919061284c565b60405180910390f35b3480156105bd575f5ffd5b506105c6610bd9565b6040516105d3919061284c565b60405180910390f35b3480156105e7575f5ffd5b506105f0610cfe565b6040516105fd919061284c565b60405180910390f35b348015610611575f5ffd5b5061061a610e23565b604051610627919061284c565b60405180910390f35b34801561063b575f5ffd5b50610644610e29565b60405161065191906129b9565b60405180910390f35b348015610665575f5ffd5b5061066e610e3b565b60405161067b919061284c565b60405180910390f35b34801561068f575f5ffd5b50610698610e41565b6040516106a5919061284c565b60405180910390f35b3480156106b9575f5ffd5b506106d460048036038101906106cf9190612893565b610e8b565b6040516106e1919061284c565b60405180910390f35b3480156106f5575f5ffd5b506106fe610ea0565b60405161070b919061284c565b60405180910390f35b34801561071f575f5ffd5b50610728610fdb565b604051610735919061284c565b60405180910390f35b348015610749575f5ffd5b50610764600480360381019061075f91906129d2565b611018565b604051610771919061284c565b60405180910390f35b610794600480360381019061078f919061291b565b6112f2565b6040516107a1919061284c565b60405180910390f35b3480156107b5575f5ffd5b506107be611305565b6040516107cb919061284c565b60405180910390f35b3480156107df575f5ffd5b506107e861130b565b6040516107f5919061284c565b60405180910390f35b348015610809575f5ffd5b50610824600480360381019061081f9190612893565b611311565b604051610831919061284c565b60405180910390f35b348015610845575f5ffd5b5061084e611326565b60405161085b919061284c565b60405180910390f35b34801561086f575f5ffd5b5061087861132c565b604051610885919061284c565b60405180910390f35b348015610899575f5ffd5b506108a2611332565b6040516108af91906128d8565b60405180910390f35b7f000000000000000000000000000000000000000000000000000000000000000081565b60045481565b6019602052805f5260405f205f915090505481565b600f5481565b60055481565b60115481565b60095481565b60035481565b5f7f000000000000000000000000000000000000000000000000000000000000000073ffffffffffffffffffffffffffffffffffffffff163373ffffffffffffffffffffffffffffffffffffffff16146109a657336040517f3465632f00000000000000000000000000000000000000000000000000000000815260040161099d919061281b565b60405180910390fd5b6109ae611345565b60075490505f81036109f757336040517f95ae4d390000000000000000000000000000000000000000000000000000000081526004016109ee919061281b565b60405180910390fd5b5f600781905550610a2933827fab6628a90a7ef81b9cb086ffdd31c183e212f8185de3ab73839694761087bfd4611389565b610a3161148a565b610a396115ab565b90565b600c5481565b600b5481565b60165f9054906101000a900460ff1681565b5f601554610a66610e41565b610a709190612a3d565b905090565b7f000000000000000000000000000000000000000000000000000000000000000081565b60155481565b60145481565b60025481565b60135481565b60105481565b60075481565b5f7f000000000000000000000000000000000000000000000000000000000000000073ffffffffffffffffffffffffffffffffffffffff163373ffffffffffffffffffffffffffffffffffffffff1614610b4e57336040517f3465632f000000000000000000000000000000000000000000000000000000008152600401610b45919061281b565b60405180910390fd5b60165f9054906101000a900460ff1680610b745750601660019054906101000a900460ff165b15610bab576040517f56c7c0cc00000000000000000000000000000000000000000000000000000000815260040160405180910390fd5b610bb7338360016115b4565b90506001601660016101000a81548160ff021916908315150217905550919050565b5f610be2611345565b60185f3373ffffffffffffffffffffffffffffffffffffffff1673ffffffffffffffffffffffffffffffffffffffff1681526020019081526020015f205490505f8103610c6657336040517f95ae4d39000000000000000000000000000000000000000000000000000000008152600401610c5d919061281b565b60405180910390fd5b5f60185f3373ffffffffffffffffffffffffffffffffffffffff1673ffffffffffffffffffffffffffffffffffffffff1681526020019081526020015f20819055508060115f828254610cb99190612a70565b92505081905550610ceb33827fd8a3c1bffe113bc19e79c348ccfc7d8fa58dd3d678a972067c75781b2a9c2a00611389565b610cf361148a565b610cfb6115ab565b90565b5f610d07611345565b60195f3373ffffffffffffffffffffffffffffffffffffffff1673ffffffffffffffffffffffffffffffffffffffff1681526020019081526020015f205490505f8103610d8b57336040517f95ae4d39000000000000000000000000000000000000000000000000000000008152600401610d82919061281b565b60405180910390fd5b5f60195f3373ffffffffffffffffffffffffffffffffffffffff1673ffffffffffffffffffffffffffffffffffffffff1681526020019081526020015f20819055508060155f828254610dde9190612a70565b92505081905550610e1033827faa4e0f6cdcea7b211950e8a75e39146abfef1b33054a194490366571502a5e48611389565b610e1861148a565b610e206115ab565b90565b60065481565b60015f9054906101000a900460ff1681565b60085481565b5f601154600a54600954600854600754600454610e5e9190612a3d565b610e689190612a3d565b610e729190612a3d565b610e7c9190612a3d565b610e869190612a3d565b905090565b6018602052805f5260405f205f915090505481565b5f7f000000000000000000000000000000000000000000000000000000000000000073ffffffffffffffffffffffffffffffffffffffff163373ffffffffffffffffffffffffffffffffffffffff1614610f3157336040517f9294e200000000000000000000000000000000000000000000000000000000008152600401610f28919061281b565b60405180910390fd5b610f39611345565b600954600854610f499190612a3d565b90505f8103610f8f57336040517f95ae4d39000000000000000000000000000000000000000000000000000000008152600401610f86919061281b565b60405180910390fd5b5f6008819055505f600981905550610fc833827f1564a906f298f38c53c194143ad6ba1944ed8bc662abfa3d359a458232c3cc6c611389565b610fd061148a565b610fd86115ab565b90565b5f600c54600b54600654600554601054610ff59190612a3d565b610fff9190612a3d565b6110099190612a3d565b6110139190612a3d565b905090565b5f611021611a01565b5f60175f3373ffffffffffffffffffffffffffffffffffffffff1673ffffffffffffffffffffffffffffffffffffffff1681526020019081526020015f20549050808411156110a95780846040517fa17124f80000000000000000000000000000000000000000000000000000000081526004016110a0929190612aa3565b60405180910390fd5b5f6110bc60025460035487600454611a8b565b90505f6110cb825f0151611bac565b9050848160800151101561111c578481608001516040517f0791936f000000000000000000000000000000000000000000000000000000008152600401611113929190612aa3565b60405180910390fd5b81602001516002819055508160400151600381905550815f015160045f8282546111469190612a70565b925050819055508560055f82825461115e9190612a3d565b9250508190555085836111719190612a70565b60175f3373ffffffffffffffffffffffffffffffffffffffff1673ffffffffffffffffffffffffffffffffffffffff1681526020019081526020015f20819055508560105f8282546111c39190612a70565b92505081905550806040015160075f8282546111df9190612a3d565b92505081905550806060015160085f8282546111fb9190612a3d565b92505081905550806080015160185f3373ffffffffffffffffffffffffffffffffffffffff1673ffffffffffffffffffffffffffffffffffffffff1681526020019081526020015f205f8282546112529190612a3d565b92505081905550806080015160115f82825461126e9190612a3d565b925050819055503373ffffffffffffffffffffffffffffffffffffffff167f0db49c84bba47806cd98c426100d458b5859594553fc51f0ce13852e9e1ca1c987845f01518460800151856040015186606001516040516112d2959493929190612aca565b60405180910390a26112e261148a565b8060800151935050505092915050565b5f6112fe33835f6115b4565b9050919050565b60125481565b600d5481565b6017602052805f5260405f205f915090505481565b600a5481565b600e5481565b601660019054906101000a900460ff1681565b60025f5403611380576040517f3ee5aeb500000000000000000000000000000000000000000000000000000000815260040160405180910390fd5b60025f81905550565b5f8373ffffffffffffffffffffffffffffffffffffffff16836040516113ae90612b48565b5f6040518083038185875af1925050503d805f81146113e8576040519150601f19603f3d011682016040523d82523d5f602084013e6113ed565b606091505b50509050806114355783836040517f2c6a51e200000000000000000000000000000000000000000000000000000000815260040161142c929190612b5c565b60405180910390fd5b818473ffffffffffffffffffffffffffffffffffffffff167f8a8e5e68b5b872857c60593846a5cdb3d57207dec56089a24677c2e43e2b1cca8560405161147c919061284c565b60405180910390a350505050565b611492610a5a565b4710156114cb576040517f0dadffb300000000000000000000000000000000000000000000000000000000815260040160405180910390fd5b6014546013546114db9190612a3d565b60125414611515576040517f0dadffb300000000000000000000000000000000000000000000000000000000815260040160405180910390fd5b6b033b2e3c9fd0803ce800000061152a610fdb565b14611561576040517f0dadffb300000000000000000000000000000000000000000000000000000000815260040160405180910390fd5b6b0295be96e64066972000000060055411156115a9576040517f0dadffb300000000000000000000000000000000000000000000000000000000815260040160405180910390fd5b565b60015f81905550565b5f6115bd611a01565b5f3490505f6115cb82611bac565b90505f6115e46002546003546005548560800151611c5e565b90505f5f5f5f8460c0015115611668575f611603888760200151611e47565b90508060200151945080604001519350806080015192508060a00151915085602001518160c0015114611662576040517f0dadffb300000000000000000000000000000000000000000000000000000000815260040160405180910390fd5b506116bb565b869350856040015191508560600151905084602001518660800151146116ba576040517f0dadffb300000000000000000000000000000000000000000000000000000000815260040160405180910390fd5b5b8880156116d557506a108b2a2c28029094000000855f0151115b1561172757845f01516a108b2a2c280290940000006040517f31fc040d00000000000000000000000000000000000000000000000000000000815260040161171e929190612aa3565b60405180910390fd5b89855f015110156117745789855f01516040517fb1448a6900000000000000000000000000000000000000000000000000000000815260040161176b929190612aa3565b60405180910390fd5b600160165f6101000a81548160ff02191690831515021790555084606001516002819055508460800151600381905550846020015160045f8282546117b99190612a3d565b925050819055508460a00151600581905550845f015160175f8d73ffffffffffffffffffffffffffffffffffffffff1673ffffffffffffffffffffffffffffffffffffffff1681526020019081526020015f205f82825461181a9190612a3d565b92505081905550845f015160105f8282546118359190612a3d565b925050819055508160075f82825461184d9190612a3d565b925050819055508060085f8282546118659190612a3d565b925050819055508660125f82825461187d9190612a3d565b925050819055508360135f8282546118959190612a3d565b925050819055505f8314611975578260195f8d73ffffffffffffffffffffffffffffffffffffffff1673ffffffffffffffffffffffffffffffffffffffff1681526020019081526020015f205f8282546118ef9190612a3d565b925050819055508260145f8282546119079190612a3d565b925050819055508260155f82825461191f9190612a3d565b925050819055508a73ffffffffffffffffffffffffffffffffffffffff167f08deb149afae7eacc8b1cca01200323dadecf1bf31de4283ebcd2d76564e819f8460405161196c919061284c565b60405180910390a25b8a73ffffffffffffffffffffffffffffffffffffffff167f6aca558a17acdb28cf36bd17a224740ed6c6a73de4aff1f9aca8c03ec27d2ea8858760200151885f015186866040516119ca959493929190612aca565b60405180910390a28460c00151156119e5576119e4611f4a565b5b6119ed61148a565b845f01519750505050505050509392505050565b60016003811115611a1557611a14612946565b5b60015f9054906101000a900460ff166003811115611a3657611a35612946565b5b14611a895760015f9054906101000a900460ff1660016040517f77e5c5f2000000000000000000000000000000000000000000000000000000008152600401611a80929190612b83565b60405180910390fd5b565b611a93612702565b611a9d85856120c7565b5f8303611ad6576040517f1f2a200500000000000000000000000000000000000000000000000000000000815260040160405180910390fd5b5f8385611ae39190612a3d565b90505f611af3878784600161210f565b90505f8188611b029190612a70565b90505f8103611b3d576040517fe618637e00000000000000000000000000000000000000000000000000000000815260040160405180910390fd5b84811115611b845784816040517f10ca2eaa000000000000000000000000000000000000000000000000000000008152600401611b7b929190612aa3565b60405180910390fd5b6040518060600160405280828152602001838152602001848152509350505050949350505050565b611bb4612720565b5f8203611bed576040517f1f2a200500000000000000000000000000000000000000000000000000000000815260040160405180910390fd5b5f611c0183606461ffff166127105f61210f565b90505f600282611c119190612bd7565b90505f8183611c209190612a70565b90506040518060a001604052808681526020018481526020018381526020018281526020018487611c519190612a70565b8152509350505050919050565b611c6661274a565b611c7085856120c7565b5f8303611ca9576040517f6d10334100000000000000000000000000000000000000000000000000000000815260040160405180910390fd5b838310611cef5782846040517fd300780d000000000000000000000000000000000000000000000000000000008152600401611ce6929190612aa3565b60405180910390fd5b5f8203611d28576040517f1f2a200500000000000000000000000000000000000000000000000000000000815260040160405180910390fd5b5f8286611d359190612a3d565b90505f611d45878784600161210f565b90505f8187611d549190612a70565b90505f8103611d8f576040517fe618637e00000000000000000000000000000000000000000000000000000000815260040160405180910390fd5b85811015611de1576040518060e001604052808281526020018681526020015f81526020018481526020018381526020018288611dcc9190612a70565b81526020015f15158152509350505050611e3f565b5f5f5f611def8b8b8b61215c565b9250925092506040518060e001604052808a8152602001848152602001848a611e189190612a70565b81526020018381526020018281526020015f81526020016001151581525096505050505050505b949350505050565b611e4f612782565b5f831480611e5c57505f82145b15611e93576040517f1f2a200500000000000000000000000000000000000000000000000000000000815260040160405180910390fd5b5f611e9d83612255565b905083811115611ee65783816040517f2cb767ef000000000000000000000000000000000000000000000000000000008152600401611edd929190612aa3565b60405180910390fd5b5f611ef082611bac565b90506040518060e001604052808681526020018381526020018387611f159190612a70565b815260200182602001518152602001826040015181526020018260600151815260200182608001518152509250505092915050565b600260015f6101000a81548160ff02191690836003811115611f6f57611f6e612946565b5b02179055505f611f80600454612324565b90505f611f9682606001516002546003546123b0565b9050600654811115611fe357600654816040517f3b5946a3000000000000000000000000000000000000000000000000000000008152600401611fda929190612aa3565b60405180910390fd5b81602001516009819055508160600151600a8190555080600b819055508060065461200e9190612a70565b600c819055505f6006819055505f60048190555061203a600b54600a546120359190612c07565b61240a565b600d81905550600d54600e819055505f600f81905550600360015f6101000a81548160ff0219169083600381111561207557612074612946565b5b02179055507f8c1da99a0c52439cc3f166923818c1a090dc832c2ed8826b7c4ba9927706d8ca600954600a54600b54600c54600e546040516120bb959493929190612aca565b60405180910390a15050565b5f8214806120d457505f81145b1561210b576040517f5f42f8be00000000000000000000000000000000000000000000000000000000815260040160405180910390fd5b5050565b5f61213d61211c836125a4565b801561213857505f848061213357612132612baa565b5b868809115b6125d1565b6121488686866125dc565b6121529190612a3d565b9050949350505050565b5f5f5f61216986866120c7565b5f84036121a2576040517f1f2a200500000000000000000000000000000000000000000000000000000000815260040160405180910390fd5b8484106121e85783856040517fd41829f00000000000000000000000000000000000000000000000000000000081526004016121df929190612aa3565b60405180910390fd5b83856121f49190612a70565b9050612203868683600161210f565b915085826122119190612a70565b92505f830361224c576040517fe618637e00000000000000000000000000000000000000000000000000000000815260040160405180910390fd5b93509350939050565b5f5f820361228f576040517f1f2a200500000000000000000000000000000000000000000000000000000000815260040160405180910390fd5b5f6122b383606461ffff16606461ffff166127106122ad9190612a70565b5f61210f565b905080836122c19190612a3d565b91505f6122cd83611bac565b90508381608001511461231d578381608001516040517f89d6f774000000000000000000000000000000000000000000000000000000008152600401612314929190612aa3565b60405180910390fd5b5050919050565b61232c6127b8565b5f8203612365576040517f1f2a200500000000000000000000000000000000000000000000000000000000815260040160405180910390fd5b5f61237a836103e861ffff166127105f61210f565b905060405180608001604052808481526020018281526020015f815260200182856123a59190612a70565b815250915050919050565b5f6123bb83836120c7565b5f84036123f4576040517f1f2a200500000000000000000000000000000000000000000000000000000000815260040160405180910390fd5b612401848385600161210f565b90509392505050565b5f6001821161241b5781905061259f565b5f8290505f60019050700100000000000000000000000000000000821061244b57608082901c9150604081901b90505b68010000000000000000821061246a57604082901c9150602081901b90505b640100000000821061248557602082901c9150601081901b90505b62010000821061249e57601082901c9150600881901b90505b61010082106124b657600882901c9150600481901b90505b601082106124cd57600482901c9150600281901b90505b600482106124dd57600181901b90505b600181600302901c905060018185816124f9576124f8612baa565b5b048201901c9050600181858161251257612511612baa565b5b048201901c9050600181858161252b5761252a612baa565b5b048201901c9050600181858161254457612543612baa565b5b048201901c9050600181858161255d5761255c612baa565b5b048201901c9050600181858161257657612575612baa565b5b048201901c90506125988185816125905761258f612baa565b5b0482116125d1565b8103925050505b919050565b5f600160028360038111156125bc576125bb612946565b5b6125c69190612c54565b60ff16149050919050565b5f8115159050919050565b5f5f5f6125e986866126bb565b915091505f820361260e5783818161260457612603612baa565b5b04925050506126b4565b81841161262d5761262c6126275f8614601260116126d8565b6126f1565b5b5f8486880990508181118303925080820391505f855f038616905080860495508083049250600181825f0304019050808402831792505f600287600302189050808702600203810290508087026002038102905080870260020381029050808702600203810290508087026002038102905080870260020381029050808402955050505050505b9392505050565b5f5f5f198385098385029150818110828203039250509250929050565b5f6126e2846125d1565b82841802821890509392505050565b634e487b715f52806020526024601cfd5b60405180606001604052805f81526020015f81526020015f81525090565b6040518060a001604052805f81526020015f81526020015f81526020015f81526020015f81525090565b6040518060e001604052805f81526020015f81526020015f81526020015f81526020015f81526020015f81526020015f151581525090565b6040518060e001604052805f81526020015f81526020015f81526020015f81526020015f81526020015f81526020015f81525090565b60405180608001604052805f81526020015f81526020015f81526020015f81525090565b5f73ffffffffffffffffffffffffffffffffffffffff82169050919050565b5f612805826127dc565b9050919050565b612815816127fb565b82525050565b5f60208201905061282e5f83018461280c565b92915050565b5f819050919050565b61284681612834565b82525050565b5f60208201905061285f5f83018461283d565b92915050565b5f5ffd5b612872816127fb565b811461287c575f5ffd5b50565b5f8135905061288d81612869565b92915050565b5f602082840312156128a8576128a7612865565b5b5f6128b58482850161287f565b91505092915050565b5f8115159050919050565b6128d2816128be565b82525050565b5f6020820190506128eb5f8301846128c9565b92915050565b6128fa81612834565b8114612904575f5ffd5b50565b5f81359050612915816128f1565b92915050565b5f602082840312156129305761292f612865565b5b5f61293d84828501612907565b91505092915050565b7f4e487b71000000000000000000000000000000000000000000000000000000005f52602160045260245ffd5b6004811061298457612983612946565b5b50565b5f81905061299482612973565b919050565b5f6129a382612987565b9050919050565b6129b381612999565b82525050565b5f6020820190506129cc5f8301846129aa565b92915050565b5f5f604083850312156129e8576129e7612865565b5b5f6129f585828601612907565b9250506020612a0685828601612907565b9150509250929050565b7f4e487b71000000000000000000000000000000000000000000000000000000005f52601160045260245ffd5b5f612a4782612834565b9150612a5283612834565b9250828201905080821115612a6a57612a69612a10565b5b92915050565b5f612a7a82612834565b9150612a8583612834565b9250828203905081811115612a9d57612a9c612a10565b5b92915050565b5f604082019050612ab65f83018561283d565b612ac3602083018461283d565b9392505050565b5f60a082019050612add5f83018861283d565b612aea602083018761283d565b612af7604083018661283d565b612b04606083018561283d565b612b11608083018461283d565b9695505050505050565b5f81905092915050565b50565b5f612b335f83612b1b565b9150612b3e82612b25565b5f82019050919050565b5f612b5282612b28565b9150819050919050565b5f604082019050612b6f5f83018561280c565b612b7c602083018461283d565b9392505050565b5f604082019050612b965f8301856129aa565b612ba360208301846129aa565b9392505050565b7f4e487b71000000000000000000000000000000000000000000000000000000005f52601260045260245ffd5b5f612be182612834565b9150612bec83612834565b925082612bfc57612bfb612baa565b5b828204905092915050565b5f612c1182612834565b9150612c1c83612834565b9250828202612c2a81612834565b91508282048414831517612c4157612c40612a10565b5b5092915050565b5f60ff82169050919050565b5f612c5e82612c48565b9150612c6983612c48565b925082612c7957612c78612baa565b5b82820690509291505056fea264697066735822122043c20f7c04300f5858bae6c0e0120ca26bf7927311f7e337de8d317fadf0ead964736f6c634300081b0033","linkReferences":{}},"methodIdentifiers":{"accountedContractBalance()":"5eb323c5","accountedExecutedBase()":"c439f3d8","accountedTokenSupply()":"d55d35b9","burnedTokens()":"47b5dd54","buy(uint256)":"d96a094a","claimBaseCredit()":"ad08ef03","claimCreatorFees()":"351fee46","claimRefund()":"b5545a3c","claimTreasuryFees()":"d1ba24e7","claimableBaseOf(address)":"c51f00f3","claimableRefundOf(address)":"11bcc3ad","creator()":"02d05d3f","creatorInitialBuy(uint256)":"aacd9d23","creatorInitialBuyExecuted()":"f7c8c7b7","creatorTradingFees()":"a885b6b5","curveTokenInventory()":"16189de7","graduationTokenReserve()":"b67961de","graduationTreasuryAllocation()":"2ebcf1b5","liquidityBase()":"eeb87bcd","liquidityTokens()":"4b8ce602","mockBurnedLp()":"f6d13af8","mockTotalLp()":"e09d27a9","mockTreasuryLp()":"12c34054","realBaseReserve()":"0b1bba24","sell(uint256,uint256)":"d79875eb","state()":"c19d93fb","tokenBalanceOf(address)":"e42c08f2","totalClaimableBase()":"200d51bc","totalGrossBaseExecuted()":"9068799c","totalGrossBaseRefunded()":"6a4d8e8f","totalGrossBaseSubmitted()":"da3a2e54","totalOutstandingRefunds()":"62d0c268","totalUserTokenBalances()":"a1e629ee","tradingStarted()":"5b4f472a","treasury()":"61d027b3","treasuryTradingFees()":"c357c3fb","virtualBaseReserve()":"6c569f21","virtualTokenReserve()":"343ee3b7"},"id":26}