{"abi":[{"type":"constructor","inputs":[{"name":"creator_","type":"address","internalType":"address"},{"name":"treasury_","type":"address","internalType":"address"}],"stateMutability":"nonpayable"},{"type":"function","name":"accountedExecutedBase","inputs":[],"outputs":[{"name":"","type":"uint256","internalType":"uint256"}],"stateMutability":"view"},{"type":"function","name":"accountedTokenSupply","inputs":[],"outputs":[{"name":"","type":"uint256","internalType":"uint256"}],"stateMutability":"view"},{"type":"function","name":"burnedTokens","inputs":[],"outputs":[{"name":"","type":"uint256","internalType":"uint256"}],"stateMutability":"view"},{"type":"function","name":"buy","inputs":[{"name":"grossBaseAvailable","type":"uint256","internalType":"uint256"},{"name":"minimumTokensOut","type":"uint256","internalType":"uint256"}],"outputs":[{"name":"tokensOut","type":"uint256","internalType":"uint256"}],"stateMutability":"nonpayable"},{"type":"function","name":"creator","inputs":[],"outputs":[{"name":"","type":"address","internalType":"address"}],"stateMutability":"view"},{"type":"function","name":"creatorInitialBuy","inputs":[{"name":"grossBaseAvailable","type":"uint256","internalType":"uint256"},{"name":"minimumTokensOut","type":"uint256","internalType":"uint256"}],"outputs":[{"name":"tokensOut","type":"uint256","internalType":"uint256"}],"stateMutability":"nonpayable"},{"type":"function","name":"creatorInitialBuyExecuted","inputs":[],"outputs":[{"name":"","type":"bool","internalType":"bool"}],"stateMutability":"view"},{"type":"function","name":"creatorTradingFees","inputs":[],"outputs":[{"name":"","type":"uint256","internalType":"uint256"}],"stateMutability":"view"},{"type":"function","name":"curveTokenInventory","inputs":[],"outputs":[{"name":"","type":"uint256","internalType":"uint256"}],"stateMutability":"view"},{"type":"function","name":"graduationTokenReserve","inputs":[],"outputs":[{"name":"","type":"uint256","internalType":"uint256"}],"stateMutability":"view"},{"type":"function","name":"graduationTreasuryAllocation","inputs":[],"outputs":[{"name":"","type":"uint256","internalType":"uint256"}],"stateMutability":"view"},{"type":"function","name":"liquidityBase","inputs":[],"outputs":[{"name":"","type":"uint256","internalType":"uint256"}],"stateMutability":"view"},{"type":"function","name":"liquidityTokens","inputs":[],"outputs":[{"name":"","type":"uint256","internalType":"uint256"}],"stateMutability":"view"},{"type":"function","name":"mockBaseCreditOf","inputs":[{"name":"user","type":"address","internalType":"address"}],"outputs":[{"name":"credit","type":"uint256","internalType":"uint256"}],"stateMutability":"view"},{"type":"function","name":"mockBurnedLp","inputs":[],"outputs":[{"name":"","type":"uint256","internalType":"uint256"}],"stateMutability":"view"},{"type":"function","name":"mockRefundOf","inputs":[{"name":"user","type":"address","internalType":"address"}],"outputs":[{"name":"refund","type":"uint256","internalType":"uint256"}],"stateMutability":"view"},{"type":"function","name":"mockTotalLp","inputs":[],"outputs":[{"name":"","type":"uint256","internalType":"uint256"}],"stateMutability":"view"},{"type":"function","name":"mockTreasuryLp","inputs":[],"outputs":[{"name":"","type":"uint256","internalType":"uint256"}],"stateMutability":"view"},{"type":"function","name":"realBaseReserve","inputs":[],"outputs":[{"name":"","type":"uint256","internalType":"uint256"}],"stateMutability":"view"},{"type":"function","name":"sell","inputs":[{"name":"tokenAmount","type":"uint256","internalType":"uint256"},{"name":"minimumBaseOut","type":"uint256","internalType":"uint256"}],"outputs":[{"name":"netBaseCredit","type":"uint256","internalType":"uint256"}],"stateMutability":"nonpayable"},{"type":"function","name":"state","inputs":[],"outputs":[{"name":"","type":"uint8","internalType":"enum LaunchState"}],"stateMutability":"view"},{"type":"function","name":"tokenBalanceOf","inputs":[{"name":"user","type":"address","internalType":"address"}],"outputs":[{"name":"balance","type":"uint256","internalType":"uint256"}],"stateMutability":"view"},{"type":"function","name":"totalGrossBaseExecuted","inputs":[],"outputs":[{"name":"","type":"uint256","internalType":"uint256"}],"stateMutability":"view"},{"type":"function","name":"totalGrossBaseRefunded","inputs":[],"outputs":[{"name":"","type":"uint256","internalType":"uint256"}],"stateMutability":"view"},{"type":"function","name":"totalGrossBaseSubmitted","inputs":[],"outputs":[{"name":"","type":"uint256","internalType":"uint256"}],"stateMutability":"view"},{"type":"function","name":"totalMockBaseCredits","inputs":[],"outputs":[{"name":"","type":"uint256","internalType":"uint256"}],"stateMutability":"view"},{"type":"function","name":"totalUserTokenBalances","inputs":[],"outputs":[{"name":"","type":"uint256","internalType":"uint256"}],"stateMutability":"view"},{"type":"function","name":"tradingStarted","inputs":[],"outputs":[{"name":"","type":"bool","internalType":"bool"}],"stateMutability":"view"},{"type":"function","name":"treasury","inputs":[],"outputs":[{"name":"","type":"address","internalType":"address"}],"stateMutability":"view"},{"type":"function","name":"treasuryTradingFees","inputs":[],"outputs":[{"name":"","type":"uint256","internalType":"uint256"}],"stateMutability":"view"},{"type":"function","name":"virtualBaseReserve","inputs":[],"outputs":[{"name":"","type":"uint256","internalType":"uint256"}],"stateMutability":"view"},{"type":"function","name":"virtualTokenReserve","inputs":[],"outputs":[{"name":"","type":"uint256","internalType":"uint256"}],"stateMutability":"view"},{"type":"event","name":"GraduationExecuted","inputs":[{"name":"treasuryAllocation","type":"uint256","indexed":false,"internalType":"uint256"},{"name":"liquidityBase","type":"uint256","indexed":false,"internalType":"uint256"},{"name":"liquidityTokens","type":"uint256","indexed":false,"internalType":"uint256"},{"name":"burnedTokens","type":"uint256","indexed":false,"internalType":"uint256"},{"name":"burnedLp","type":"uint256","indexed":false,"internalType":"uint256"}],"anonymous":false},{"type":"event","name":"MockRefundRecorded","inputs":[{"name":"buyer","type":"address","indexed":true,"internalType":"address"},{"name":"grossBaseRefund","type":"uint256","indexed":false,"internalType":"uint256"}],"anonymous":false},{"type":"event","name":"TokensPurchased","inputs":[{"name":"buyer","type":"address","indexed":true,"internalType":"address"},{"name":"grossBaseUsed","type":"uint256","indexed":false,"internalType":"uint256"},{"name":"netBaseToCurve","type":"uint256","indexed":false,"internalType":"uint256"},{"name":"tokensOut","type":"uint256","indexed":false,"internalType":"uint256"},{"name":"creatorFee","type":"uint256","indexed":false,"internalType":"uint256"},{"name":"treasuryFee","type":"uint256","indexed":false,"internalType":"uint256"}],"anonymous":false},{"type":"event","name":"TokensSold","inputs":[{"name":"seller","type":"address","indexed":true,"internalType":"address"},{"name":"tokensIn","type":"uint256","indexed":false,"internalType":"uint256"},{"name":"grossBaseOut","type":"uint256","indexed":false,"internalType":"uint256"},{"name":"netBaseCredit","type":"uint256","indexed":false,"internalType":"uint256"},{"name":"creatorFee","type":"uint256","indexed":false,"internalType":"uint256"},{"name":"treasuryFee","type":"uint256","indexed":false,"internalType":"uint256"}],"anonymous":false},{"type":"error","name":"AccountingInvariantFailed","inputs":[]},{"type":"error","name":"BaseSlippageExceeded","inputs":[{"name":"minimum","type":"uint256","internalType":"uint256"},{"name":"actual","type":"uint256","internalType":"uint256"}]},{"type":"error","name":"CreatorInitialBuyCapExceeded","inputs":[{"name":"tokensOut","type":"uint256","internalType":"uint256"},{"name":"cap","type":"uint256","internalType":"uint256"}]},{"type":"error","name":"CreatorOnly","inputs":[{"name":"caller","type":"address","internalType":"address"}]},{"type":"error","name":"GraduationTokenReserveExceeded","inputs":[{"name":"available","type":"uint256","internalType":"uint256"},{"name":"required","type":"uint256","internalType":"uint256"}]},{"type":"error","name":"GrossUpInvariantFailed","inputs":[{"name":"requiredNet","type":"uint256","internalType":"uint256"},{"name":"actualNet","type":"uint256","internalType":"uint256"}]},{"type":"error","name":"InitialBuyClosed","inputs":[]},{"type":"error","name":"InsufficientGrossAmount","inputs":[{"name":"available","type":"uint256","internalType":"uint256"},{"name":"required","type":"uint256","internalType":"uint256"}]},{"type":"error","name":"InsufficientRealReserve","inputs":[{"name":"available","type":"uint256","internalType":"uint256"},{"name":"required","type":"uint256","internalType":"uint256"}]},{"type":"error","name":"InsufficientTokenBalance","inputs":[{"name":"available","type":"uint256","internalType":"uint256"},{"name":"required","type":"uint256","internalType":"uint256"}]},{"type":"error","name":"InvalidInventory","inputs":[{"name":"inventory","type":"uint256","internalType":"uint256"},{"name":"virtualTokenReserve","type":"uint256","internalType":"uint256"}]},{"type":"error","name":"InvalidState","inputs":[{"name":"current","type":"uint8","internalType":"enum LaunchState"},{"name":"required","type":"uint8","internalType":"enum LaunchState"}]},{"type":"error","name":"InvalidTokenOutput","inputs":[{"name":"tokensOut","type":"uint256","internalType":"uint256"},{"name":"virtualTokenReserve","type":"uint256","internalType":"uint256"}]},{"type":"error","name":"TokenSlippageExceeded","inputs":[{"name":"minimum","type":"uint256","internalType":"uint256"},{"name":"actual","type":"uint256","internalType":"uint256"}]},{"type":"error","name":"ZeroAddress","inputs":[]},{"type":"error","name":"ZeroAmount","inputs":[]},{"type":"error","name":"ZeroAmount","inputs":[]},{"type":"error","name":"ZeroInventory","inputs":[]},{"type":"error","name":"ZeroOutput","inputs":[]},{"type":"error","name":"ZeroReserve","inputs":[]}],"bytecode":{"object":"0x60c060405234801561000f575f5ffd5b506040516125f33803806125f38339818101604052810190610031919061020a565b5f73ffffffffffffffffffffffffffffffffffffffff168273ffffffffffffffffffffffffffffffffffffffff16148061009657505f73ffffffffffffffffffffffffffffffffffffffff168173ffffffffffffffffffffffffffffffffffffffff16145b156100cd576040517fd92e233d00000000000000000000000000000000000000000000000000000000815260040160405180910390fd5b8173ffffffffffffffffffffffffffffffffffffffff1660808173ffffffffffffffffffffffffffffffffffffffff16815250508073ffffffffffffffffffffffffffffffffffffffff1660a08173ffffffffffffffffffffffffffffffffffffffff168152505060015f5f6101000a81548160ff0219169083600381111561015957610158610248565b5b02179055506713c69df334ee80006001819055506b03725373e24b705ab7cc00006002819055506b0295be96e6406697200000006004819055506aa56fa5b99019a5c80000006005819055505050610275565b5f5ffd5b5f73ffffffffffffffffffffffffffffffffffffffff82169050919050565b5f6101d9826101b0565b9050919050565b6101e9816101cf565b81146101f3575f5ffd5b50565b5f81519050610204816101e0565b92915050565b5f5f604083850312156102205761021f6101ac565b5b5f61022d858286016101f6565b925050602061023e858286016101f6565b9150509250929050565b7f4e487b71000000000000000000000000000000000000000000000000000000005f52602160045260245ffd5b60805160a05161235661029d5f395f61069501525f81816106200152610ac601526123565ff3fe608060405234801561000f575f5ffd5b50600436106101ee575f3560e01c8063a1e629ee1161010d578063d79875eb116100a0578063eeb87bcd1161006f578063eeb87bcd14610594578063f6d13af8146105b2578063f7c8c7b7146105d0578063feea5c03146105ee576101ee565b8063d79875eb146104f8578063da3a2e5414610528578063e09d27a914610546578063e42c08f214610564576101ee565b8063c357c3fb116100dc578063c357c3fb1461046e578063c439f3d81461048c578063d55d35b9146104aa578063d6febde8146104c8576101ee565b8063a1e629ee146103f6578063a885b6b514610414578063b67961de14610432578063c19d93fb14610450576101ee565b80634b8ce602116101855780636aa630d8116101545780636aa630d81461036c5780636c569f211461039c57806389c9e906146103ba5780639068799c146103d8576101ee565b80634b8ce602146102f45780635b4f472a1461031257806361d027b3146103305780636a4d8e8f1461034e576101ee565b80632ebcf1b5116101c15780632ebcf1b51461026a57806331e6662214610288578063343ee3b7146102b857806347b5dd54146102d6576101ee565b806302d05d3f146101f25780630b1bba241461021057806312c340541461022e57806316189de71461024c575b5f5ffd5b6101fa61061e565b6040516102079190611f4a565b60405180910390f35b610218610642565b6040516102259190611f7b565b60405180910390f35b610236610648565b6040516102439190611f7b565b60405180910390f35b61025461064e565b6040516102619190611f7b565b60405180910390f35b610272610654565b60405161027f9190611f7b565b60405180910390f35b6102a2600480360381019061029d9190611fc2565b61065a565b6040516102af9190611f7b565b60405180910390f35b6102c061066f565b6040516102cd9190611f7b565b60405180910390f35b6102de610675565b6040516102eb9190611f7b565b60405180910390f35b6102fc61067b565b6040516103099190611f7b565b60405180910390f35b61031a610681565b6040516103279190612007565b60405180910390f35b610338610693565b6040516103459190611f4a565b60405180910390f35b6103566106b7565b6040516103639190611f7b565b60405180910390f35b61038660048036038101906103819190611fc2565b6106bd565b6040516103939190611f7b565b60405180910390f35b6103a46106d2565b6040516103b19190611f7b565b60405180910390f35b6103c26106d8565b6040516103cf9190611f7b565b60405180910390f35b6103e06106de565b6040516103ed9190611f7b565b60405180910390f35b6103fe6106e4565b60405161040b9190611f7b565b60405180910390f35b61041c6106ea565b6040516104299190611f7b565b60405180910390f35b61043a6106f0565b6040516104479190611f7b565b60405180910390f35b6104586106f6565b6040516104659190612093565b60405180910390f35b610476610707565b6040516104839190611f7b565b60405180910390f35b61049461070d565b6040516104a19190611f7b565b60405180910390f35b6104b2610757565b6040516104bf9190611f7b565b60405180910390f35b6104e260048036038101906104dd91906120d6565b610794565b6040516104ef9190611f7b565b60405180910390f35b610512600480360381019061050d91906120d6565b6107a9565b60405161051f9190611f7b565b60405180910390f35b610530610a83565b60405161053d9190611f7b565b60405180910390f35b61054e610a89565b60405161055b9190611f7b565b60405180910390f35b61057e60048036038101906105799190611fc2565b610a8f565b60405161058b9190611f7b565b60405180910390f35b61059c610aa4565b6040516105a99190611f7b565b60405180910390f35b6105ba610aaa565b6040516105c79190611f7b565b60405180910390f35b6105d8610ab0565b6040516105e59190612007565b60405180910390f35b610608600480360381019061060391906120d6565b610ac3565b6040516106159190611f7b565b60405180910390f35b7f000000000000000000000000000000000000000000000000000000000000000081565b60035481565b600e5481565b60045481565b60085481565b6017602052805f5260405f205f915090505481565b60025481565b600b5481565b600a5481565b60145f9054906101000a900460ff1681565b7f000000000000000000000000000000000000000000000000000000000000000081565b60135481565b6016602052805f5260405f205f915090505481565b60015481565b60105481565b60125481565b600f5481565b60065481565b60055481565b5f5f9054906101000a900460ff1681565b60075481565b5f60105460095460085460075460065460035461072a9190612141565b6107349190612141565b61073e9190612141565b6107489190612141565b6107529190612141565b905090565b5f600b54600a54600554600454600f546107719190612141565b61077b9190612141565b6107859190612141565b61078f9190612141565b905090565b5f6107a13384845f610be1565b905092915050565b5f6107b2611012565b5f60155f3373ffffffffffffffffffffffffffffffffffffffff1673ffffffffffffffffffffffffffffffffffffffff1681526020019081526020015f205490508084111561083a5780846040517fa17124f8000000000000000000000000000000000000000000000000000000008152600401610831929190612174565b60405180910390fd5b5f61084d6001546002548760035461109a565b90505f61085c825f01516111bb565b905084816080015110156108ad578481608001516040517f0791936f0000000000000000000000000000000000000000000000000000000081526004016108a4929190612174565b60405180910390fd5b81602001516001819055508160400151600281905550815f015160035f8282546108d7919061219b565b925050819055508560045f8282546108ef9190612141565b925050819055508583610902919061219b565b60155f3373ffffffffffffffffffffffffffffffffffffffff1673ffffffffffffffffffffffffffffffffffffffff1681526020019081526020015f208190555085600f5f828254610954919061219b565b92505081905550806040015160065f8282546109709190612141565b92505081905550806060015160075f82825461098c9190612141565b92505081905550806080015160165f3373ffffffffffffffffffffffffffffffffffffffff1673ffffffffffffffffffffffffffffffffffffffff1681526020019081526020015f205f8282546109e39190612141565b92505081905550806080015160105f8282546109ff9190612141565b925050819055503373ffffffffffffffffffffffffffffffffffffffff167f0db49c84bba47806cd98c426100d458b5859594553fc51f0ce13852e9e1ca1c987845f0151846080015185604001518660600151604051610a639594939291906121ce565b60405180910390a2610a7361126d565b8060800151935050505092915050565b60115481565b600c5481565b6015602052805f5260405f205f915090505481565b60095481565b600d5481565b601460019054906101000a900460ff1681565b5f7f000000000000000000000000000000000000000000000000000000000000000073ffffffffffffffffffffffffffffffffffffffff163373ffffffffffffffffffffffffffffffffffffffff1614610b5457336040517f3465632f000000000000000000000000000000000000000000000000000000008152600401610b4b9190611f4a565b60405180910390fd5b60145f9054906101000a900460ff1680610b7a5750601460019054906101000a900460ff165b15610bb1576040517f56c7c0cc00000000000000000000000000000000000000000000000000000000815260040160405180910390fd5b610bbe3384846001610be1565b90506001601460016101000a81548160ff02191690831515021790555092915050565b5f610bea611012565b5f610bf4856111bb565b90505f610c0d600154600254600454856080015161138f565b90505f5f5f5f8460c0015115610c91575f610c2c8b8760200151611578565b90508060200151945080604001519350806080015192508060a00151915085602001518160c0015114610c8b576040517f0dadffb300000000000000000000000000000000000000000000000000000000815260040160405180910390fd5b50610ce4565b89935085604001519150856060015190508460200151866080015114610ce3576040517f0dadffb300000000000000000000000000000000000000000000000000000000815260040160405180910390fd5b5b878015610cfe57506a108b2a2c28029094000000855f0151115b15610d5057845f01516a108b2a2c280290940000006040517f31fc040d000000000000000000000000000000000000000000000000000000008152600401610d47929190612174565b60405180910390fd5b88855f01511015610d9d5788855f01516040517fb1448a69000000000000000000000000000000000000000000000000000000008152600401610d94929190612174565b60405180910390fd5b600160145f6101000a81548160ff02191690831515021790555084606001516001819055508460800151600281905550846020015160035f828254610de29190612141565b925050819055508460a00151600481905550845f015160155f8d73ffffffffffffffffffffffffffffffffffffffff1673ffffffffffffffffffffffffffffffffffffffff1681526020019081526020015f205f828254610e439190612141565b92505081905550845f0151600f5f828254610e5e9190612141565b925050819055508160065f828254610e769190612141565b925050819055508060075f828254610e8e9190612141565b925050819055508960115f828254610ea69190612141565b925050819055508360125f828254610ebe9190612141565b925050819055505f8314610f86578260175f8d73ffffffffffffffffffffffffffffffffffffffff1673ffffffffffffffffffffffffffffffffffffffff1681526020019081526020015f205f828254610f189190612141565b925050819055508260135f828254610f309190612141565b925050819055508a73ffffffffffffffffffffffffffffffffffffffff167fee2b4c88d4ce41082e0c3cec3b73d642a9aa242eec107ea6c44a1ef8a4c581cb84604051610f7d9190611f7b565b60405180910390a25b8a73ffffffffffffffffffffffffffffffffffffffff167f6aca558a17acdb28cf36bd17a224740ed6c6a73de4aff1f9aca8c03ec27d2ea8858760200151885f01518686604051610fdb9594939291906121ce565b60405180910390a28460c0015115610ff657610ff561167b565b5b610ffe61126d565b845f01519650505050505050949350505050565b6001600381111561102657611025612020565b5b5f5f9054906101000a900460ff16600381111561104657611045612020565b5b14611098575f5f9054906101000a900460ff1660016040517f77e5c5f200000000000000000000000000000000000000000000000000000000815260040161108f92919061221f565b60405180910390fd5b565b6110a2611e31565b6110ac85856117f6565b5f83036110e5576040517f1f2a200500000000000000000000000000000000000000000000000000000000815260040160405180910390fd5b5f83856110f29190612141565b90505f611102878784600161183e565b90505f8188611111919061219b565b90505f810361114c576040517fe618637e00000000000000000000000000000000000000000000000000000000815260040160405180910390fd5b848111156111935784816040517f10ca2eaa00000000000000000000000000000000000000000000000000000000815260040161118a929190612174565b60405180910390fd5b6040518060600160405280828152602001838152602001848152509350505050949350505050565b6111c3611e4f565b5f82036111fc576040517f1f2a200500000000000000000000000000000000000000000000000000000000815260040160405180910390fd5b5f61121083606461ffff166127105f61183e565b90505f6002826112209190612273565b90505f818361122f919061219b565b90506040518060a001604052808681526020018481526020018381526020018281526020018487611260919061219b565b8152509350505050919050565b60125461127861070d565b146112af576040517f0dadffb300000000000000000000000000000000000000000000000000000000815260040160405180910390fd5b6013546012546112bf9190612141565b601154146112f9576040517f0dadffb300000000000000000000000000000000000000000000000000000000815260040160405180910390fd5b6b033b2e3c9fd0803ce800000061130e610757565b14611345576040517f0dadffb300000000000000000000000000000000000000000000000000000000815260040160405180910390fd5b6b0295be96e640669720000000600454111561138d576040517f0dadffb300000000000000000000000000000000000000000000000000000000815260040160405180910390fd5b565b611397611e79565b6113a185856117f6565b5f83036113da576040517f6d10334100000000000000000000000000000000000000000000000000000000815260040160405180910390fd5b8383106114205782846040517fd300780d000000000000000000000000000000000000000000000000000000008152600401611417929190612174565b60405180910390fd5b5f8203611459576040517f1f2a200500000000000000000000000000000000000000000000000000000000815260040160405180910390fd5b5f82866114669190612141565b90505f611476878784600161183e565b90505f8187611485919061219b565b90505f81036114c0576040517fe618637e00000000000000000000000000000000000000000000000000000000815260040160405180910390fd5b85811015611512576040518060e001604052808281526020018681526020015f815260200184815260200183815260200182886114fd919061219b565b81526020015f15158152509350505050611570565b5f5f5f6115208b8b8b61188b565b9250925092506040518060e001604052808a8152602001848152602001848a611549919061219b565b81526020018381526020018281526020015f81526020016001151581525096505050505050505b949350505050565b611580611eb1565b5f83148061158d57505f82145b156115c4576040517f1f2a200500000000000000000000000000000000000000000000000000000000815260040160405180910390fd5b5f6115ce83611984565b9050838111156116175783816040517f2cb767ef00000000000000000000000000000000000000000000000000000000815260040161160e929190612174565b60405180910390fd5b5f611621826111bb565b90506040518060e001604052808681526020018381526020018387611646919061219b565b815260200182602001518152602001826040015181526020018260600151815260200182608001518152509250505092915050565b60025f5f6101000a81548160ff0219169083600381111561169f5761169e612020565b5b02179055505f6116b0600354611a53565b90505f6116c68260600151600154600254611adf565b905060055481111561171357600554816040517f3b5946a300000000000000000000000000000000000000000000000000000000815260040161170a929190612174565b60405180910390fd5b8160200151600881905550816060015160098190555080600a819055508060055461173e919061219b565b600b819055505f6005819055505f60038190555061176a600a5460095461176591906122a3565b611b39565b600c81905550600c54600d819055505f600e8190555060035f5f6101000a81548160ff021916908360038111156117a4576117a3612020565b5b02179055507f8c1da99a0c52439cc3f166923818c1a090dc832c2ed8826b7c4ba9927706d8ca600854600954600a54600b54600d546040516117ea9594939291906121ce565b60405180910390a15050565b5f82148061180357505f81145b1561183a576040517f5f42f8be00000000000000000000000000000000000000000000000000000000815260040160405180910390fd5b5050565b5f61186c61184b83611cd3565b801561186757505f848061186257611861612246565b5b868809115b611d00565b611877868686611d0b565b6118819190612141565b9050949350505050565b5f5f5f61189886866117f6565b5f84036118d1576040517f1f2a200500000000000000000000000000000000000000000000000000000000815260040160405180910390fd5b8484106119175783856040517fd41829f000000000000000000000000000000000000000000000000000000000815260040161190e929190612174565b60405180910390fd5b8385611923919061219b565b9050611932868683600161183e565b91508582611940919061219b565b92505f830361197b576040517fe618637e00000000000000000000000000000000000000000000000000000000815260040160405180910390fd5b93509350939050565b5f5f82036119be576040517f1f2a200500000000000000000000000000000000000000000000000000000000815260040160405180910390fd5b5f6119e283606461ffff16606461ffff166127106119dc919061219b565b5f61183e565b905080836119f09190612141565b91505f6119fc836111bb565b905083816080015114611a4c578381608001516040517f89d6f774000000000000000000000000000000000000000000000000000000008152600401611a43929190612174565b60405180910390fd5b5050919050565b611a5b611ee7565b5f8203611a94576040517f1f2a200500000000000000000000000000000000000000000000000000000000815260040160405180910390fd5b5f611aa9836103e861ffff166127105f61183e565b905060405180608001604052808481526020018281526020015f81526020018285611ad4919061219b565b815250915050919050565b5f611aea83836117f6565b5f8403611b23576040517f1f2a200500000000000000000000000000000000000000000000000000000000815260040160405180910390fd5b611b30848385600161183e565b90509392505050565b5f60018211611b4a57819050611cce565b5f8290505f600190507001000000000000000000000000000000008210611b7a57608082901c9150604081901b90505b680100000000000000008210611b9957604082901c9150602081901b90505b6401000000008210611bb457602082901c9150601081901b90505b620100008210611bcd57601082901c9150600881901b90505b6101008210611be557600882901c9150600481901b90505b60108210611bfc57600482901c9150600281901b90505b60048210611c0c57600181901b90505b600181600302901c90506001818581611c2857611c27612246565b5b048201901c90506001818581611c4157611c40612246565b5b048201901c90506001818581611c5a57611c59612246565b5b048201901c90506001818581611c7357611c72612246565b5b048201901c90506001818581611c8c57611c8b612246565b5b048201901c90506001818581611ca557611ca4612246565b5b048201901c9050611cc7818581611cbf57611cbe612246565b5b048211611d00565b8103925050505b919050565b5f60016002836003811115611ceb57611cea612020565b5b611cf591906122f0565b60ff16149050919050565b5f8115159050919050565b5f5f5f611d188686611dea565b915091505f8203611d3d57838181611d3357611d32612246565b5b0492505050611de3565b818411611d5c57611d5b611d565f861460126011611e07565b611e20565b5b5f8486880990508181118303925080820391505f855f038616905080860495508083049250600181825f0304019050808402831792505f600287600302189050808702600203810290508087026002038102905080870260020381029050808702600203810290508087026002038102905080870260020381029050808402955050505050505b9392505050565b5f5f5f198385098385029150818110828203039250509250929050565b5f611e1184611d00565b82841802821890509392505050565b634e487b715f52806020526024601cfd5b60405180606001604052805f81526020015f81526020015f81525090565b6040518060a001604052805f81526020015f81526020015f81526020015f81526020015f81525090565b6040518060e001604052805f81526020015f81526020015f81526020015f81526020015f81526020015f81526020015f151581525090565b6040518060e001604052805f81526020015f81526020015f81526020015f81526020015f81526020015f81526020015f81525090565b60405180608001604052805f81526020015f81526020015f81526020015f81525090565b5f73ffffffffffffffffffffffffffffffffffffffff82169050919050565b5f611f3482611f0b565b9050919050565b611f4481611f2a565b82525050565b5f602082019050611f5d5f830184611f3b565b92915050565b5f819050919050565b611f7581611f63565b82525050565b5f602082019050611f8e5f830184611f6c565b92915050565b5f5ffd5b611fa181611f2a565b8114611fab575f5ffd5b50565b5f81359050611fbc81611f98565b92915050565b5f60208284031215611fd757611fd6611f94565b5b5f611fe484828501611fae565b91505092915050565b5f8115159050919050565b61200181611fed565b82525050565b5f60208201905061201a5f830184611ff8565b92915050565b7f4e487b71000000000000000000000000000000000000000000000000000000005f52602160045260245ffd5b6004811061205e5761205d612020565b5b50565b5f81905061206e8261204d565b919050565b5f61207d82612061565b9050919050565b61208d81612073565b82525050565b5f6020820190506120a65f830184612084565b92915050565b6120b581611f63565b81146120bf575f5ffd5b50565b5f813590506120d0816120ac565b92915050565b5f5f604083850312156120ec576120eb611f94565b5b5f6120f9858286016120c2565b925050602061210a858286016120c2565b9150509250929050565b7f4e487b71000000000000000000000000000000000000000000000000000000005f52601160045260245ffd5b5f61214b82611f63565b915061215683611f63565b925082820190508082111561216e5761216d612114565b5b92915050565b5f6040820190506121875f830185611f6c565b6121946020830184611f6c565b9392505050565b5f6121a582611f63565b91506121b083611f63565b92508282039050818111156121c8576121c7612114565b5b92915050565b5f60a0820190506121e15f830188611f6c565b6121ee6020830187611f6c565b6121fb6040830186611f6c565b6122086060830185611f6c565b6122156080830184611f6c565b9695505050505050565b5f6040820190506122325f830185612084565b61223f6020830184612084565b9392505050565b7f4e487b71000000000000000000000000000000000000000000000000000000005f52601260045260245ffd5b5f61227d82611f63565b915061228883611f63565b92508261229857612297612246565b5b828204905092915050565b5f6122ad82611f63565b91506122b883611f63565b92508282026122c681611f63565b915082820484148315176122dd576122dc612114565b5b5092915050565b5f60ff82169050919050565b5f6122fa826122e4565b9150612305836122e4565b92508261231557612314612246565b5b82820690509291505056fea26469706673582212206a775ccf3a9e14fdfe1e89e59d55bf98405e740332141d8cf0330a3427674e8b64736f6c634300081b0033","linkReferences":{}},"methodIdentifiers":{"accountedExecutedBase()":"c439f3d8","accountedTokenSupply()":"d55d35b9","burnedTokens()":"47b5dd54","buy(uint256,uint256)":"d6febde8","creator()":"02d05d3f","creatorInitialBuy(uint256,uint256)":"feea5c03","creatorInitialBuyExecuted()":"f7c8c7b7","creatorTradingFees()":"a885b6b5","curveTokenInventory()":"16189de7","graduationTokenReserve()":"b67961de","graduationTreasuryAllocation()":"2ebcf1b5","liquidityBase()":"eeb87bcd","liquidityTokens()":"4b8ce602","mockBaseCreditOf(address)":"6aa630d8","mockBurnedLp()":"f6d13af8","mockRefundOf(address)":"31e66622","mockTotalLp()":"e09d27a9","mockTreasuryLp()":"12c34054","realBaseReserve()":"0b1bba24","sell(uint256,uint256)":"d79875eb","state()":"c19d93fb","tokenBalanceOf(address)":"e42c08f2","totalGrossBaseExecuted()":"9068799c","totalGrossBaseRefunded()":"6a4d8e8f","totalGrossBaseSubmitted()":"da3a2e54","totalMockBaseCredits()":"89c9e906","totalUserTokenBalances()":"a1e629ee","tradingStarted()":"5b4f472a","treasury()":"61d027b3","treasuryTradingFees()":"c357c3fb","virtualBaseReserve()":"6c569f21","virtualTokenReserve()":"343ee3b7"},"id":25}